{
  "_format": "hh3-artifact-1",
  "contractName": "RentalContractRegistry",
  "sourceName": "contracts/RentalContractRegistry.sol",
  "abi": [
    {
      "inputs": [
        {
          "internalType": "string",
          "name": "",
          "type": "string"
        }
      ],
      "name": "contracts",
      "outputs": [
        {
          "internalType": "bytes32",
          "name": "contractHash",
          "type": "bytes32"
        },
        {
          "internalType": "bool",
          "name": "exists",
          "type": "bool"
        }
      ],
      "stateMutability": "view",
      "type": "function"
    },
    {
      "inputs": [
        {
          "internalType": "string",
          "name": "contractId",
          "type": "string"
        },
        {
          "internalType": "bytes32",
          "name": "contractHash",
          "type": "bytes32"
        }
      ],
      "name": "registerContract",
      "outputs": [],
      "stateMutability": "nonpayable",
      "type": "function"
    }
  ],
  "bytecode": "0x6080604052348015600e575f5ffd5b506102b98061001c5f395ff3fe608060405234801561000f575f5ffd5b5060043610610034575f3560e01c8063464f0c9c146100385780638c5b83851461004d575b5f5ffd5b61004b6100463660046101f1565b61009a565b005b61008161005b366004610233565b80516020818301810180515f825292820191909301209152805460019091015460ff1682565b6040805192835290151560208301520160405180910390f35b5f826040516100a9919061026d565b9081526040519081900360200190206001015460ff16156101015760405162461bcd60e51b815260206004820152600e60248201526d416c72656164792065786973747360901b604482015260640160405180910390fd5b6040805180820182528281526001602082015290515f9061012390859061026d565b90815260405160209181900382019020825181559101516001909101805460ff19169115159190911790555050565b634e487b7160e01b5f52604160045260245ffd5b5f82601f830112610175575f5ffd5b813567ffffffffffffffff81111561018f5761018f610152565b604051601f8201601f19908116603f0116810167ffffffffffffffff811182821017156101be576101be610152565b6040528181528382016020018510156101d5575f5ffd5b816020850160208301375f918101602001919091529392505050565b5f5f60408385031215610202575f5ffd5b823567ffffffffffffffff811115610218575f5ffd5b61022485828601610166565b95602094909401359450505050565b5f60208284031215610243575f5ffd5b813567ffffffffffffffff811115610259575f5ffd5b61026584828501610166565b949350505050565b5f82518060208501845e5f92019182525091905056fea2646970667358221220f38c470a11a6de8f6d3d8154a7812bf9e07ccb68870003bd2a1400c2a29e1fb164736f6c634300081c0033",
  "linkReferences": {},
  "deployedLinkReferences": {},
  "immutableReferences": {},
  "inputSourceName": "project/contracts/RentalContractRegistry.sol",
  "buildInfoId": "solc-0_8_28-97937a029face603a2a167784128830539b9afdf"
}